{
  "fileName": "ERC20Airdrop.sol",
  "contractName": "ERC20Airdrop",
  "source": "pragma solidity ^0.5.0;\n\nimport \"@openzeppelin/upgrades/contracts/Initializable.sol\";\nimport \"@openzeppelin/contracts-ethereum-package/contracts/token/ERC20/ERC20.sol\";\nimport \"@openzeppelin/contracts-ethereum-package/contracts/math/SafeMath.sol\";\n\n/**\n * @dev Extension of {ERC20} that implements a basic ERC20 staking\n * with incentive distribution.\n */\ncontract ERC20Airdrop is Initializable, ERC20 {\n    using SafeMath for uint256;\n\n    function airdrop(uint256 amount, address [] calldata recipients) external {\n        require(amount > 0, \"Airdrop: zero amount\");\n        require(recipients.length > 0, \"Airdrop: recipients required\");\n        address sender = _msgSender();\n        require(balanceOf(sender) >= amount.mul(recipients.length), \"Airdrop: not enough balance\");\n        for (uint i = 0; i < recipients.length; i++) {\n            _transfer(sender, recipients[i], amount);\n        }\n    }\n    uint256[50] private ______gap;\n}\n",
  "sourcePath": "contracts/ERC20Airdrop.sol",
  "abi": [
    {
      "anonymous": false,
      "inputs": [
        {
          "indexed": true,
          "internalType": "address",
          "name": "owner",
          "type": "address"
        },
        {
          "indexed": true,
          "internalType": "address",
          "name": "spender",
          "type": "address"
        },
        {
          "indexed": false,
          "internalType": "uint256",
          "name": "value",
          "type": "uint256"
        }
      ],
      "name": "Approval",
      "type": "event"
    },
    {
      "anonymous": false,
      "inputs": [
        {
          "indexed": true,
          "internalType": "address",
          "name": "from",
          "type": "address"
        },
        {
          "indexed": true,
          "internalType": "address",
          "name": "to",
          "type": "address"
        },
        {
          "indexed": false,
          "internalType": "uint256",
          "name": "value",
          "type": "uint256"
        }
      ],
      "name": "Transfer",
      "type": "event"
    },
    {
      "constant": false,
      "inputs": [
        {
          "internalType": "uint256",
          "name": "amount",
          "type": "uint256"
        },
        {
          "internalType": "address[]",
          "name": "recipients",
          "type": "address[]"
        }
      ],
      "name": "airdrop",
      "outputs": [],
      "payable": false,
      "stateMutability": "nonpayable",
      "type": "function"
    },
    {
      "constant": true,
      "inputs": [
        {
          "internalType": "address",
          "name": "owner",
          "type": "address"
        },
        {
          "internalType": "address",
          "name": "spender",
          "type": "address"
        }
      ],
      "name": "allowance",
      "outputs": [
        {
          "internalType": "uint256",
          "name": "",
          "type": "uint256"
        }
      ],
      "payable": false,
      "stateMutability": "view",
      "type": "function"
    },
    {
      "constant": false,
      "inputs": [
        {
          "internalType": "address",
          "name": "spender",
          "type": "address"
        },
        {
          "internalType": "uint256",
          "name": "amount",
          "type": "uint256"
        }
      ],
      "name": "approve",
      "outputs": [
        {
          "internalType": "bool",
          "name": "",
          "type": "bool"
        }
      ],
      "payable": false,
      "stateMutability": "nonpayable",
      "type": "function"
    },
    {
      "constant": true,
      "inputs": [
        {
          "internalType": "address",
          "name": "account",
          "type": "address"
        }
      ],
      "name": "balanceOf",
      "outputs": [
        {
          "internalType": "uint256",
          "name": "",
          "type": "uint256"
        }
      ],
      "payable": false,
      "stateMutability": "view",
      "type": "function"
    },
    {
      "constant": false,
      "inputs": [
        {
          "internalType": "address",
          "name": "spender",
          "type": "address"
        },
        {
          "internalType": "uint256",
          "name": "subtractedValue",
          "type": "uint256"
        }
      ],
      "name": "decreaseAllowance",
      "outputs": [
        {
          "internalType": "bool",
          "name": "",
          "type": "bool"
        }
      ],
      "payable": false,
      "stateMutability": "nonpayable",
      "type": "function"
    },
    {
      "constant": false,
      "inputs": [
        {
          "internalType": "address",
          "name": "spender",
          "type": "address"
        },
        {
          "internalType": "uint256",
          "name": "addedValue",
          "type": "uint256"
        }
      ],
      "name": "increaseAllowance",
      "outputs": [
        {
          "internalType": "bool",
          "name": "",
          "type": "bool"
        }
      ],
      "payable": false,
      "stateMutability": "nonpayable",
      "type": "function"
    },
    {
      "constant": true,
      "inputs": [],
      "name": "totalSupply",
      "outputs": [
        {
          "internalType": "uint256",
          "name": "",
          "type": "uint256"
        }
      ],
      "payable": false,
      "stateMutability": "view",
      "type": "function"
    },
    {
      "constant": false,
      "inputs": [
        {
          "internalType": "address",
          "name": "recipient",
          "type": "address"
        },
        {
          "internalType": "uint256",
          "name": "amount",
          "type": "uint256"
        }
      ],
      "name": "transfer",
      "outputs": [
        {
          "internalType": "bool",
          "name": "",
          "type": "bool"
        }
      ],
      "payable": false,
      "stateMutability": "nonpayable",
      "type": "function"
    },
    {
      "constant": false,
      "inputs": [
        {
          "internalType": "address",
          "name": "sender",
          "type": "address"
        },
        {
          "internalType": "address",
          "name": "recipient",
          "type": "address"
        },
        {
          "internalType": "uint256",
          "name": "amount",
          "type": "uint256"
        }
      ],
      "name": "transferFrom",
      "outputs": [
        {
          "internalType": "bool",
          "name": "",
          "type": "bool"
        }
      ],
      "payable": false,
      "stateMutability": "nonpayable",
      "type": "function"
    }
  ],
  "bytecode": "0x6080604052610a92806100136000396000f3fe608060405234801561001057600080fd5b50600436106100935760003560e01c806370a082311161006657806370a0823114610154578063a457c2d71461017a578063a9059cbb146101a6578063bdf7a8e6146101d2578063dd62ed3e1461024b57610093565b8063095ea7b31461009857806318160ddd146100d857806323b872dd146100f25780633950935114610128575b600080fd5b6100c4600480360360408110156100ae57600080fd5b506001600160a01b038135169060200135610279565b604080519115158252519081900360200190f35b6100e0610297565b60408051918252519081900360200190f35b6100c46004803603606081101561010857600080fd5b506001600160a01b0381358116916020810135909116906040013561029d565b6100c46004803603604081101561013e57600080fd5b506001600160a01b03813516906020013561032a565b6100e06004803603602081101561016a57600080fd5b50356001600160a01b031661037e565b6100c46004803603604081101561019057600080fd5b506001600160a01b038135169060200135610399565b6100c4600480360360408110156101bc57600080fd5b506001600160a01b038135169060200135610407565b610249600480360360408110156101e857600080fd5b8135919081019060408101602082013564010000000081111561020a57600080fd5b82018360208201111561021c57600080fd5b8035906020019184602083028401116401000000008311171561023e57600080fd5b50909250905061041b565b005b6100e06004803603604081101561026157600080fd5b506001600160a01b0381358116916020013516610571565b600061028d61028661059c565b84846105a0565b5060015b92915050565b60355490565b60006102aa84848461068c565b610320846102b661059c565b61031b856040518060600160405280602881526020016109c8602891396001600160a01b038a166000908152603460205260408120906102f461059c565b6001600160a01b03168152602081019190915260400160002054919063ffffffff6107ea16565b6105a0565b5060019392505050565b600061028d61033761059c565b8461031b856034600061034861059c565b6001600160a01b03908116825260208083019390935260409182016000908120918c16815292529020549063ffffffff61088116565b6001600160a01b031660009081526033602052604090205490565b600061028d6103a661059c565b8461031b85604051806060016040528060258152602001610a3960259139603460006103d061059c565b6001600160a01b03908116825260208083019390935260409182016000908120918d1681529252902054919063ffffffff6107ea16565b600061028d61041461059c565b848461068c565b60008311610467576040805162461bcd60e51b8152602060048201526014602482015273105a5c991c9bdc0e881e995c9bc8185b5bdd5b9d60621b604482015290519081900360640190fd5b806104b9576040805162461bcd60e51b815260206004820152601c60248201527f41697264726f703a20726563697069656e747320726571756972656400000000604482015290519081900360640190fd5b60006104c361059c565b90506104d5848363ffffffff6108e216565b6104de8261037e565b1015610531576040805162461bcd60e51b815260206004820152601b60248201527f41697264726f703a206e6f7420656e6f7567682062616c616e63650000000000604482015290519081900360640190fd5b60005b8281101561056a576105628285858481811061054c57fe5b905060200201356001600160a01b03168761068c565b600101610534565b5050505050565b6001600160a01b03918216600090815260346020908152604080832093909416825291909152205490565b3390565b6001600160a01b0383166105e55760405162461bcd60e51b8152600401808060200182810382526024815260200180610a156024913960400191505060405180910390fd5b6001600160a01b03821661062a5760405162461bcd60e51b815260040180806020018281038252602281526020018061095f6022913960400191505060405180910390fd5b6001600160a01b03808416600081815260346020908152604080832094871680845294825291829020859055815185815291517f8c5be1e5ebec7d5bd14f71427d1e84f3dd0314c0f7b2291e5b200ac8c7c3b9259281900390910190a3505050565b6001600160a01b0383166106d15760405162461bcd60e51b81526004018080602001828103825260258152602001806109f06025913960400191505060405180910390fd5b6001600160a01b0382166107165760405162461bcd60e51b815260040180806020018281038252602381526020018061093c6023913960400191505060405180910390fd5b61075981604051806060016040528060268152602001610981602691396001600160a01b038616600090815260336020526040902054919063ffffffff6107ea16565b6001600160a01b03808516600090815260336020526040808220939093559084168152205461078e908263ffffffff61088116565b6001600160a01b0380841660008181526033602090815260409182902094909455805185815290519193928716927fddf252ad1be2c89b69c2b068fc378daa952ba7f163c4a11628f55a4df523b3ef92918290030190a3505050565b600081848411156108795760405162461bcd60e51b81526004018080602001828103825283818151815260200191508051906020019080838360005b8381101561083e578181015183820152602001610826565b50505050905090810190601f16801561086b5780820380516001836020036101000a031916815260200191505b509250505060405180910390fd5b505050900390565b6000828201838110156108db576040805162461bcd60e51b815260206004820152601b60248201527f536166654d6174683a206164646974696f6e206f766572666c6f770000000000604482015290519081900360640190fd5b9392505050565b6000826108f157506000610291565b828202828482816108fe57fe5b04146108db5760405162461bcd60e51b81526004018080602001828103825260218152602001806109a76021913960400191505060405180910390fdfe45524332303a207472616e7366657220746f20746865207a65726f206164647265737345524332303a20617070726f766520746f20746865207a65726f206164647265737345524332303a207472616e7366657220616d6f756e7420657863656564732062616c616e6365536166654d6174683a206d756c7469706c69636174696f6e206f766572666c6f7745524332303a207472616e7366657220616d6f756e74206578636565647320616c6c6f77616e636545524332303a207472616e736665722066726f6d20746865207a65726f206164647265737345524332303a20617070726f76652066726f6d20746865207a65726f206164647265737345524332303a2064656372656173656420616c6c6f77616e63652062656c6f77207a65726fa265627a7a72315820786c305a219f2bed1d2fd5350a3854e2e7c9d51f6d7c111f4062c1ae050323b864736f6c63430005110032",
  "compiler": {
    "name": "solc",
    "version": "0.5.17+commit.d19bba13.Emscripten.clang",
    "optimizer": {
      "enabled": true,
      "runs": 200
    },
    "evmVersion": "petersburg"
  }
}