{
  "fileName": "ERC20Stakes.sol",
  "contractName": "ERC20Stakes",
  "source": "pragma solidity ^0.5.0;\n\nimport \"@openzeppelin/upgrades/contracts/Initializable.sol\";\nimport \"@openzeppelin/contracts-ethereum-package/contracts/token/ERC20/ERC20.sol\";\nimport \"@openzeppelin/contracts-ethereum-package/contracts/math/SafeMath.sol\";\n\n/**\n * @dev Extension of {ERC20} that implements a basic ERC20 staking\n * with incentive distribution.\n */\ncontract ERC20Stakes is Initializable, ERC20 {\n    using SafeMath for uint256;\n\n    // TODO change to real\n    uint256 private _holdPeriod; // = 2 minutes; // 21 days;\n    uint256 private _annualPercent; // = 12; // 12%\n    uint256 private _basePeriod; // = 30 seconds; //1 days\n    uint256 private _annualPeriod; // = 100 * 10 minutes; // 100 * 365 days\n\n    event StakeCreate(address indexed stakeholder, uint256 stake);\n    event StakeHold(address indexed stakeholder);\n    event StakeWithdraw(address indexed stakeholder, uint256 reward);\n\n    struct Stake {\n        uint256 amount;\n        uint256 stakedAt;\n        uint256 heldAt;\n    }\n\n    /**\n     * @dev stakeholders list\n     */\n    address[] private _stakeholders;\n\n    /**\n     * @dev the stakes for each stakeholder.\n     */\n    mapping(address => Stake) private _stakes;\n\n    modifier onlyStakeExists(address stakeholder) {\n        require(_stakes[stakeholder].amount > 0, \"Stake: no stake yet\");\n        require(_stakes[stakeholder].heldAt == 0, \"Stake: stake canceled\");\n        require(_stakes[stakeholder].stakedAt < now, \"Stake: stake just created\");\n        _;\n    }\n\n    modifier onlyNoStakeYet(address stakeholder) {\n        require(_stakes[stakeholder].amount == 0, \"Stake: stake exists\");\n        _;\n    }\n\n    modifier onlyStakeUnheld(address stakeholder) {\n        require(_stakes[stakeholder].heldAt > _stakes[stakeholder].stakedAt, \"Stake: stake not exists or not canceled\");\n        require(_stakes[stakeholder].heldAt + _holdPeriod <= now, \"Stake: stake on hold\");\n        _;\n    }\n\n    function initialize(uint256 basePeriod, uint256 holdPeriod, uint256 annualPercent, uint256 annualPeriod) public initializer {\n        _stakeParams(basePeriod, holdPeriod, annualPercent, annualPeriod);\n    }\n\n\n    function _stakeParams(uint256 basePeriod, uint256 holdPeriod, uint256 annualPercent, uint256 annualPeriod) internal {\n        _holdPeriod = holdPeriod;\n        _annualPercent = annualPercent;\n        _basePeriod = basePeriod;\n        _annualPeriod = annualPeriod.mul(100);\n    }\n\n    function basePeriod() external view returns (uint256) {\n        return _basePeriod;\n    }\n    function holdPeriod() external view returns (uint256) {\n        return _holdPeriod;\n    }\n    function annualPercent() external view returns (uint256) {\n        return _annualPercent;\n    }\n    function annualPeriod() external view returns (uint256) {\n        return _annualPeriod / 100;\n    }\n\n    /**\n   * @dev A method for a stakeholder to create a stake\n   */\n    function createStake(uint256 stake) external {\n        _createStake(_msgSender(), stake);\n    }\n\n    /**\n     * @dev A method for a stakeholder to remove a stake\n     */\n    function cancelStake() external {\n        _holdStake(_msgSender());\n    }\n\n    /**\n    * @dev A method to allow a stakeholder to withdraw his rewards.\n    */\n    function withdrawStake() external {\n        _removeStake(_msgSender());\n    }\n\n    /**\n     * @dev internal method for a stakeholder to create a stake.\n     * @param stakeholder Stakeholder address\n     * @param stake The size of the stake to be created.\n     */\n    function _createStake(address stakeholder, uint256 stake) internal onlyNoStakeYet(stakeholder) {\n        _burn(stakeholder, stake);\n        _stakes[stakeholder] = Stake({\n            amount : stake,\n            stakedAt : now,\n            heldAt : 0\n            });\n        _addStakeholder(stakeholder);\n        emit StakeCreate(stakeholder,  stake);\n\n    }\n\n    /**\n     * @dev internal method for a stakeholder to hold a stake.\n     * @param stakeholder Stakeholder address\n     */\n    function _holdStake(address stakeholder) internal onlyStakeExists(stakeholder) {\n        _stakes[stakeholder].heldAt = now;\n        emit StakeHold(stakeholder);\n    }\n\n    /**\n     * @dev internal method for a stakeholder to remove a stake.\n     * @param stakeholder Stakeholder address\n     */\n    function _removeStake(address stakeholder) internal onlyStakeUnheld(stakeholder) {\n        uint256 reward = _reward(stakeholder, _stakes[stakeholder].heldAt);\n        uint256 stake = _stakes[stakeholder].amount;\n        delete _stakes[stakeholder];\n        _removeStakeholder(stakeholder);\n        _mint(stakeholder, stake.add(reward));\n        emit StakeWithdraw(stakeholder, reward);\n    }\n\n    /**\n     * @dev A method to retrieve the stake for a stakeholder.\n     * @param stakeholder The stakeholder to retrieve the stake for.\n     * @return uint256 The amount of wei staked.\n     */\n    function stakeOf(address stakeholder) public view returns (uint256){\n        return _stakes[stakeholder].amount;\n    }\n\n    function stakeDetails(address stakeholder) public view returns (uint256, uint256){\n        return (_stakes[stakeholder].stakedAt, _stakes[stakeholder].heldAt);\n    }\n\n    function rewardOf(address stakeholder) public view returns(uint256) {\n        if (_stakes[stakeholder].stakedAt == 0) return 0;\n        return _reward(stakeholder, _stakes[stakeholder].heldAt == 0 ? now : _stakes[stakeholder].heldAt);\n    }\n\n    function _reward(address stakeholder, uint rewardedAt) internal view returns(uint256) {\n        // total stake period in days\n        uint256 period = ((rewardedAt - _stakes[stakeholder].stakedAt) / _basePeriod) * _basePeriod;\n        // reward for period according annual percent value\n        return _stakes[stakeholder].amount.mul(period).mul(_annualPercent) / _annualPeriod;\n    }\n\n    /**\n     * @dev A method to the aggregated stakes from all stakeholders.\n     * @return uint256 The aggregated stakes from all stakeholders.\n     */\n    function totalStakes() public view returns (uint256) {\n        uint256 _totalStakes = 0;\n        for (uint256 s = 0; s < _stakeholders.length; s++) {\n            _totalStakes = _totalStakes.add(_stakes[_stakeholders[s]].amount);\n        }\n        return _totalStakes;\n    }\n\n    /**\n     * @dev A method to check if an address is a stakeholder.\n     * @param stakeholder The address to verify.\n     * @return bool, uint256 Whether the address is a stakeholder,\n     * and if so its position in the stakeholders array.\n     */\n    function isStakeholder(address stakeholder) public view returns (bool, uint256) {\n        for (uint256 s = 0; s < _stakeholders.length; s++) {\n            if (stakeholder == _stakeholders[s]) return (true, s);\n        }\n        return (false, 0);\n    }\n\n    /**\n     * @dev A method to add a stakeholder.\n     * @param stakeholder The stakeholder to add.\n     */\n    function _addStakeholder(address stakeholder) internal {\n        (bool _isStakeholder,) = isStakeholder(stakeholder);\n        if (!_isStakeholder) _stakeholders.push(stakeholder);\n    }\n\n    /**\n     * @dev A method to remove a stakeholder.\n     * @param stakeholder The stakeholder to remove.\n     */\n    function _removeStakeholder(address stakeholder) internal {\n        (bool _isStakeholder, uint256 s) = isStakeholder(stakeholder);\n        if (_isStakeholder) {\n            _stakeholders[s] = _stakeholders[_stakeholders.length - 1];\n            _stakeholders.pop();\n        }\n    }\n\n    uint256[50] private ______gap;\n}\n",
  "sourcePath": "contracts/ERC20Stakes.sol",
  "abi": [
    {
      "anonymous": false,
      "inputs": [
        {
          "indexed": true,
          "internalType": "address",
          "name": "owner",
          "type": "address"
        },
        {
          "indexed": true,
          "internalType": "address",
          "name": "spender",
          "type": "address"
        },
        {
          "indexed": false,
          "internalType": "uint256",
          "name": "value",
          "type": "uint256"
        }
      ],
      "name": "Approval",
      "type": "event"
    },
    {
      "anonymous": false,
      "inputs": [
        {
          "indexed": true,
          "internalType": "address",
          "name": "stakeholder",
          "type": "address"
        },
        {
          "indexed": false,
          "internalType": "uint256",
          "name": "stake",
          "type": "uint256"
        }
      ],
      "name": "StakeCreate",
      "type": "event"
    },
    {
      "anonymous": false,
      "inputs": [
        {
          "indexed": true,
          "internalType": "address",
          "name": "stakeholder",
          "type": "address"
        }
      ],
      "name": "StakeHold",
      "type": "event"
    },
    {
      "anonymous": false,
      "inputs": [
        {
          "indexed": true,
          "internalType": "address",
          "name": "stakeholder",
          "type": "address"
        },
        {
          "indexed": false,
          "internalType": "uint256",
          "name": "reward",
          "type": "uint256"
        }
      ],
      "name": "StakeWithdraw",
      "type": "event"
    },
    {
      "anonymous": false,
      "inputs": [
        {
          "indexed": true,
          "internalType": "address",
          "name": "from",
          "type": "address"
        },
        {
          "indexed": true,
          "internalType": "address",
          "name": "to",
          "type": "address"
        },
        {
          "indexed": false,
          "internalType": "uint256",
          "name": "value",
          "type": "uint256"
        }
      ],
      "name": "Transfer",
      "type": "event"
    },
    {
      "constant": true,
      "inputs": [
        {
          "internalType": "address",
          "name": "owner",
          "type": "address"
        },
        {
          "internalType": "address",
          "name": "spender",
          "type": "address"
        }
      ],
      "name": "allowance",
      "outputs": [
        {
          "internalType": "uint256",
          "name": "",
          "type": "uint256"
        }
      ],
      "payable": false,
      "stateMutability": "view",
      "type": "function"
    },
    {
      "constant": true,
      "inputs": [],
      "name": "annualPercent",
      "outputs": [
        {
          "internalType": "uint256",
          "name": "",
          "type": "uint256"
        }
      ],
      "payable": false,
      "stateMutability": "view",
      "type": "function"
    },
    {
      "constant": true,
      "inputs": [],
      "name": "annualPeriod",
      "outputs": [
        {
          "internalType": "uint256",
          "name": "",
          "type": "uint256"
        }
      ],
      "payable": false,
      "stateMutability": "view",
      "type": "function"
    },
    {
      "constant": false,
      "inputs": [
        {
          "internalType": "address",
          "name": "spender",
          "type": "address"
        },
        {
          "internalType": "uint256",
          "name": "amount",
          "type": "uint256"
        }
      ],
      "name": "approve",
      "outputs": [
        {
          "internalType": "bool",
          "name": "",
          "type": "bool"
        }
      ],
      "payable": false,
      "stateMutability": "nonpayable",
      "type": "function"
    },
    {
      "constant": true,
      "inputs": [
        {
          "internalType": "address",
          "name": "account",
          "type": "address"
        }
      ],
      "name": "balanceOf",
      "outputs": [
        {
          "internalType": "uint256",
          "name": "",
          "type": "uint256"
        }
      ],
      "payable": false,
      "stateMutability": "view",
      "type": "function"
    },
    {
      "constant": true,
      "inputs": [],
      "name": "basePeriod",
      "outputs": [
        {
          "internalType": "uint256",
          "name": "",
          "type": "uint256"
        }
      ],
      "payable": false,
      "stateMutability": "view",
      "type": "function"
    },
    {
      "constant": false,
      "inputs": [],
      "name": "cancelStake",
      "outputs": [],
      "payable": false,
      "stateMutability": "nonpayable",
      "type": "function"
    },
    {
      "constant": false,
      "inputs": [
        {
          "internalType": "uint256",
          "name": "stake",
          "type": "uint256"
        }
      ],
      "name": "createStake",
      "outputs": [],
      "payable": false,
      "stateMutability": "nonpayable",
      "type": "function"
    },
    {
      "constant": false,
      "inputs": [
        {
          "internalType": "address",
          "name": "spender",
          "type": "address"
        },
        {
          "internalType": "uint256",
          "name": "subtractedValue",
          "type": "uint256"
        }
      ],
      "name": "decreaseAllowance",
      "outputs": [
        {
          "internalType": "bool",
          "name": "",
          "type": "bool"
        }
      ],
      "payable": false,
      "stateMutability": "nonpayable",
      "type": "function"
    },
    {
      "constant": true,
      "inputs": [],
      "name": "holdPeriod",
      "outputs": [
        {
          "internalType": "uint256",
          "name": "",
          "type": "uint256"
        }
      ],
      "payable": false,
      "stateMutability": "view",
      "type": "function"
    },
    {
      "constant": false,
      "inputs": [
        {
          "internalType": "address",
          "name": "spender",
          "type": "address"
        },
        {
          "internalType": "uint256",
          "name": "addedValue",
          "type": "uint256"
        }
      ],
      "name": "increaseAllowance",
      "outputs": [
        {
          "internalType": "bool",
          "name": "",
          "type": "bool"
        }
      ],
      "payable": false,
      "stateMutability": "nonpayable",
      "type": "function"
    },
    {
      "constant": false,
      "inputs": [
        {
          "internalType": "uint256",
          "name": "basePeriod",
          "type": "uint256"
        },
        {
          "internalType": "uint256",
          "name": "holdPeriod",
          "type": "uint256"
        },
        {
          "internalType": "uint256",
          "name": "annualPercent",
          "type": "uint256"
        },
        {
          "internalType": "uint256",
          "name": "annualPeriod",
          "type": "uint256"
        }
      ],
      "name": "initialize",
      "outputs": [],
      "payable": false,
      "stateMutability": "nonpayable",
      "type": "function"
    },
    {
      "constant": true,
      "inputs": [
        {
          "internalType": "address",
          "name": "stakeholder",
          "type": "address"
        }
      ],
      "name": "isStakeholder",
      "outputs": [
        {
          "internalType": "bool",
          "name": "",
          "type": "bool"
        },
        {
          "internalType": "uint256",
          "name": "",
          "type": "uint256"
        }
      ],
      "payable": false,
      "stateMutability": "view",
      "type": "function"
    },
    {
      "constant": true,
      "inputs": [
        {
          "internalType": "address",
          "name": "stakeholder",
          "type": "address"
        }
      ],
      "name": "rewardOf",
      "outputs": [
        {
          "internalType": "uint256",
          "name": "",
          "type": "uint256"
        }
      ],
      "payable": false,
      "stateMutability": "view",
      "type": "function"
    },
    {
      "constant": true,
      "inputs": [
        {
          "internalType": "address",
          "name": "stakeholder",
          "type": "address"
        }
      ],
      "name": "stakeDetails",
      "outputs": [
        {
          "internalType": "uint256",
          "name": "",
          "type": "uint256"
        },
        {
          "internalType": "uint256",
          "name": "",
          "type": "uint256"
        }
      ],
      "payable": false,
      "stateMutability": "view",
      "type": "function"
    },
    {
      "constant": true,
      "inputs": [
        {
          "internalType": "address",
          "name": "stakeholder",
          "type": "address"
        }
      ],
      "name": "stakeOf",
      "outputs": [
        {
          "internalType": "uint256",
          "name": "",
          "type": "uint256"
        }
      ],
      "payable": false,
      "stateMutability": "view",
      "type": "function"
    },
    {
      "constant": true,
      "inputs": [],
      "name": "totalStakes",
      "outputs": [
        {
          "internalType": "uint256",
          "name": "",
          "type": "uint256"
        }
      ],
      "payable": false,
      "stateMutability": "view",
      "type": "function"
    },
    {
      "constant": true,
      "inputs": [],
      "name": "totalSupply",
      "outputs": [
        {
          "internalType": "uint256",
          "name": "",
          "type": "uint256"
        }
      ],
      "payable": false,
      "stateMutability": "view",
      "type": "function"
    },
    {
      "constant": false,
      "inputs": [
        {
          "internalType": "address",
          "name": "recipient",
          "type": "address"
        },
        {
          "internalType": "uint256",
          "name": "amount",
          "type": "uint256"
        }
      ],
      "name": "transfer",
      "outputs": [
        {
          "internalType": "bool",
          "name": "",
          "type": "bool"
        }
      ],
      "payable": false,
      "stateMutability": "nonpayable",
      "type": "function"
    },
    {
      "constant": false,
      "inputs": [
        {
          "internalType": "address",
          "name": "sender",
          "type": "address"
        },
        {
          "internalType": "address",
          "name": "recipient",
          "type": "address"
        },
        {
          "internalType": "uint256",
          "name": "amount",
          "type": "uint256"
        }
      ],
      "name": "transferFrom",
      "outputs": [
        {
          "internalType": "bool",
          "name": "",
          "type": "bool"
        }
      ],
      "payable": false,
      "stateMutability": "nonpayable",
      "type": "function"
    },
    {
      "constant": false,
      "inputs": [],
      "name": "withdrawStake",
      "outputs": [],
      "payable": false,
      "stateMutability": "nonpayable",
      "type": "function"
    }
  ],
  "bytecode": "0x60806040526115e2806100136000396000f3fe608060405234801561001057600080fd5b50600436106101375760003560e01c8063a9059cbb116100b8578063dd62ed3e1161007c578063dd62ed3e14610330578063e1b8e8131461035e578063eadca0f414610366578063ef037b901461036e578063f5967a2f146103af578063fa2a9da9146103b757610137565b8063a9059cbb146102e4578063a9bd429614610310578063bed9d86114610318578063bf9befb114610320578063ca9ce2911461032857610137565b806339509351116100ff5780633950935114610211578063426233601461023d57806360a2da441461026357806370a0823114610292578063a457c2d7146102b857610137565b8063095ea7b31461013c57806318160ddd1461017c5780631bf6ddae146101965780631d62ebd9146101b557806323b872dd146101db575b600080fd5b6101686004803603604081101561015257600080fd5b506001600160a01b0381351690602001356103f6565b604080519115158252519081900360200190f35b610184610414565b60408051918252519081900360200190f35b6101b3600480360360208110156101ac57600080fd5b503561041a565b005b610184600480360360208110156101cb57600080fd5b50356001600160a01b031661042e565b610168600480360360608110156101f157600080fd5b506001600160a01b038135811691602081013590911690604001356104ad565b6101686004803603604081101561022757600080fd5b506001600160a01b03813516906020013561053a565b6101846004803603602081101561025357600080fd5b50356001600160a01b031661058e565b6101b36004803603608081101561027957600080fd5b50803590602081013590604081013590606001356105a9565b610184600480360360208110156102a857600080fd5b50356001600160a01b031661065b565b610168600480360360408110156102ce57600080fd5b506001600160a01b038135169060200135610676565b610168600480360360408110156102fa57600080fd5b506001600160a01b0381351690602001356106e4565b6101846106f8565b6101b36106fe565b610184610710565b6101b3610775565b6101846004803603604081101561034657600080fd5b506001600160a01b0381358116916020013516610785565b6101846107b0565b6101846107c4565b6103946004803603602081101561038457600080fd5b50356001600160a01b03166107ca565b60408051921515835260208301919091528051918290030190f35b610184610826565b6103dd600480360360208110156103cd57600080fd5b50356001600160a01b031661082c565b6040805192835260208301919091528051918290030190f35b600061040a610403610852565b8484610856565b5060015b92915050565b60355490565b61042b610425610852565b82610942565b50565b6001600160a01b0381166000908152606d6020526040812060010154610456575060006104a8565b6001600160a01b0382166000908152606d60205260409020600201546104a59083901561049e576001600160a01b0384166000908152606d60205260409020600201546104a0565b425b610a41565b90505b919050565b60006104ba848484610ac8565b610530846104c6610852565b61052b856040518060600160405280602881526020016114c9602891396001600160a01b038a16600090815260346020526040812090610504610852565b6001600160a01b03168152602081019190915260400160002054919063ffffffff610c2616565b610856565b5060019392505050565b600061040a610547610852565b8461052b8560346000610558610852565b6001600160a01b03908116825260208083019390935260409182016000908120918c16815292529020549063ffffffff610cbd16565b6001600160a01b03166000908152606d602052604090205490565b600054610100900460ff16806105c257506105c2610d1e565b806105d0575060005460ff16155b61060b5760405162461bcd60e51b815260040180806020018281038252602e8152602001806114f1602e913960400191505060405180910390fd5b600054610100900460ff16158015610636576000805460ff1961ff0019909116610100171660011790555b61064285858585610d24565b8015610654576000805461ff00191690555b5050505050565b6001600160a01b031660009081526033602052604090205490565b600061040a610683610852565b8461052b8560405180606001604052806025815260200161158960259139603460006106ad610852565b6001600160a01b03908116825260208083019390935260409182016000908120918d1681529252902054919063ffffffff610c2616565b600061040a6106f1610852565b8484610ac8565b60695490565b61070e610709610852565b610d4d565b565b600080805b606c5481101561076f57610765606d6000606c848154811061073357fe5b60009182526020808320909101546001600160a01b03168352820192909252604001902054839063ffffffff610cbd16565b9150600101610715565b50905090565b61070e610780610852565b610ed8565b6001600160a01b03918216600090815260346020908152604080832093909416825291909152205490565b60006064606b54816107be57fe5b04905090565b606a5490565b600080805b606c5481101561081857606c81815481106107e657fe5b6000918252602090912001546001600160a01b038581169116141561081057600192509050610821565b6001016107cf565b50600091508190505b915091565b60685490565b6001600160a01b03166000908152606d6020526040902060018101546002909101549091565b3390565b6001600160a01b03831661089b5760405162461bcd60e51b81526004018080602001828103825260248152602001806115656024913960400191505060405180910390fd5b6001600160a01b0382166108e05760405162461bcd60e51b81526004018080602001828103825260228152602001806114606022913960400191505060405180910390fd5b6001600160a01b03808416600081815260346020908152604080832094871680845294825291829020859055815185815291517f8c5be1e5ebec7d5bd14f71427d1e84f3dd0314c0f7b2291e5b200ac8c7c3b9259281900390910190a3505050565b6001600160a01b0382166000908152606d60205260409020548290156109a5576040805162461bcd60e51b81526020600482015260136024820152725374616b653a207374616b652065786973747360681b604482015290519081900360640190fd5b6109af8383611058565b6040805160608101825283815242602080830191825260008385018181526001600160a01b0389168252606d909252939093209151825551600182015590516002909101556109fd83611154565b6040805183815290516001600160a01b038516917f8915595eb58a6a6bf41eb9635929fc76b8e27c299f418d35d2727b8142cd5e90919081900360200190a2505050565b606a546001600160a01b0383166000908152606d6020526040812060010154909182918190850381610a6f57fe5b606b546069546001600160a01b0389166000908152606d602052604090205493909204939093029350610ab891610aac908563ffffffff6111b716565b9063ffffffff6111b716565b81610abf57fe5b04949350505050565b6001600160a01b038316610b0d5760405162461bcd60e51b81526004018080602001828103825260258152602001806115406025913960400191505060405180910390fd5b6001600160a01b038216610b525760405162461bcd60e51b81526004018080602001828103825260238152602001806113f46023913960400191505060405180910390fd5b610b9581604051806060016040528060268152602001611482602691396001600160a01b038616600090815260336020526040902054919063ffffffff610c2616565b6001600160a01b038085166000908152603360205260408082209390935590841681522054610bca908263ffffffff610cbd16565b6001600160a01b0380841660008181526033602090815260409182902094909455805185815290519193928716927fddf252ad1be2c89b69c2b068fc378daa952ba7f163c4a11628f55a4df523b3ef92918290030190a3505050565b60008184841115610cb55760405162461bcd60e51b81526004018080602001828103825283818151815260200191508051906020019080838360005b83811015610c7a578181015183820152602001610c62565b50505050905090810190601f168015610ca75780820380516001836020036101000a031916815260200191505b509250505060405180910390fd5b505050900390565b600082820183811015610d17576040805162461bcd60e51b815260206004820152601b60248201527f536166654d6174683a206164646974696f6e206f766572666c6f770000000000604482015290519081900360640190fd5b9392505050565b303b1590565b60688390556069829055606a849055610d4481606463ffffffff6111b716565b606b5550505050565b6001600160a01b0381166000908152606d602052604090206001810154600290910154829110610dae5760405162461bcd60e51b81526004018080602001828103825260278152602001806114396027913960400191505060405180910390fd5b6068546001600160a01b0382166000908152606d60205260409020600201544291011115610e1a576040805162461bcd60e51b815260206004820152601460248201527314dd185ad94e881cdd185ad9481bdb881a1bdb1960621b604482015290519081900360640190fd5b6001600160a01b0382166000908152606d6020526040812060020154610e41908490610a41565b6001600160a01b0384166000908152606d60205260408120805482825560018201839055600290910191909155909150610e7a84611210565b610e9384610e8e838563ffffffff610cbd16565b6112bf565b6040805183815290516001600160a01b038616917f1248d48e2de900a1010c7fce73506969ecec243600bfc08b641b158f26d857cd919081900360200190a250505050565b6001600160a01b0381166000908152606d60205260409020548190610f3a576040805162461bcd60e51b815260206004820152601360248201527214dd185ad94e881b9bc81cdd185ad9481e595d606a1b604482015290519081900360640190fd5b6001600160a01b0381166000908152606d602052604090206002015415610fa0576040805162461bcd60e51b815260206004820152601560248201527414dd185ad94e881cdd185ad94818d85b98d95b1959605a1b604482015290519081900360640190fd5b6001600160a01b0381166000908152606d6020526040902060010154421161100f576040805162461bcd60e51b815260206004820152601960248201527f5374616b653a207374616b65206a757374206372656174656400000000000000604482015290519081900360640190fd5b6001600160a01b0382166000818152606d602052604080822042600290910155517f42549297d4130b561bf55291c0aaedc0050cd4bc739be20b58090af3d85f4fd99190a25050565b6001600160a01b03821661109d5760405162461bcd60e51b815260040180806020018281038252602181526020018061151f6021913960400191505060405180910390fd5b6110e081604051806060016040528060228152602001611417602291396001600160a01b038516600090815260336020526040902054919063ffffffff610c2616565b6001600160a01b03831660009081526033602052604090205560355461110c908263ffffffff6113b116565b6035556040805182815290516000916001600160a01b038516917fddf252ad1be2c89b69c2b068fc378daa952ba7f163c4a11628f55a4df523b3ef9181900360200190a35050565b600061115f826107ca565b509050806111b357606c80546001810182556000919091527f2b4a51ab505fc96a0952efda2ba61bcd3078d4c02c39a186ec16f21883fbe0160180546001600160a01b0319166001600160a01b0384161790555b5050565b6000826111c65750600061040e565b828202828482816111d357fe5b0414610d175760405162461bcd60e51b81526004018080602001828103825260218152602001806114a86021913960400191505060405180910390fd5b60008061121c836107ca565b9150915081156112ba57606c8054600019810190811061123857fe5b600091825260209091200154606c80546001600160a01b03909216918390811061125e57fe5b9060005260206000200160006101000a8154816001600160a01b0302191690836001600160a01b03160217905550606c80548061129757fe5b600082815260209020810160001990810180546001600160a01b03191690550190555b505050565b6001600160a01b03821661131a576040805162461bcd60e51b815260206004820152601f60248201527f45524332303a206d696e7420746f20746865207a65726f206164647265737300604482015290519081900360640190fd5b60355461132d908263ffffffff610cbd16565b6035556001600160a01b038216600090815260336020526040902054611359908263ffffffff610cbd16565b6001600160a01b03831660008181526033602090815260408083209490945583518581529351929391927fddf252ad1be2c89b69c2b068fc378daa952ba7f163c4a11628f55a4df523b3ef9281900390910190a35050565b6000610d1783836040518060400160405280601e81526020017f536166654d6174683a207375627472616374696f6e206f766572666c6f770000815250610c2656fe45524332303a207472616e7366657220746f20746865207a65726f206164647265737345524332303a206275726e20616d6f756e7420657863656564732062616c616e63655374616b653a207374616b65206e6f7420657869737473206f72206e6f742063616e63656c656445524332303a20617070726f766520746f20746865207a65726f206164647265737345524332303a207472616e7366657220616d6f756e7420657863656564732062616c616e6365536166654d6174683a206d756c7469706c69636174696f6e206f766572666c6f7745524332303a207472616e7366657220616d6f756e74206578636565647320616c6c6f77616e6365436f6e747261637420696e7374616e63652068617320616c7265616479206265656e20696e697469616c697a656445524332303a206275726e2066726f6d20746865207a65726f206164647265737345524332303a207472616e736665722066726f6d20746865207a65726f206164647265737345524332303a20617070726f76652066726f6d20746865207a65726f206164647265737345524332303a2064656372656173656420616c6c6f77616e63652062656c6f77207a65726fa265627a7a72315820802ecedf598a7576c441a4bd9bf579d51a15c987bf43f78b8976e2ae0d03b70264736f6c63430005110032",
  "compiler": {
    "name": "solc",
    "version": "0.5.17+commit.d19bba13.Emscripten.clang",
    "optimizer": {
      "enabled": true,
      "runs": 200
    },
    "evmVersion": "petersburg"
  }
}