{
  "fileName": "Token.sol",
  "contractName": "Token",
  "source": "pragma solidity ^0.5.0;\n\nimport \"@openzeppelin/upgrades/contracts/Initializable.sol\";\nimport \"@openzeppelin/contracts-ethereum-package/contracts/ownership/Ownable.sol\";\nimport \"@openzeppelin/contracts-ethereum-package/contracts/token/ERC20/ERC20Detailed.sol\";\nimport \"@openzeppelin/contracts-ethereum-package/contracts/token/ERC20/ERC20Mintable.sol\";\n//import \"@openzeppelin/contracts-ethereum-package/contracts/token/ERC20/ERC20Burnable.sol\";\nimport \"./ERC20Stakes.sol\";\nimport \"./ERC20Airdrop.sol\";\n\ncontract Token is Initializable, Ownable, ERC20Airdrop, ERC20Stakes, ERC20Detailed, ERC20Mintable {\n\n    function initialize(string memory name, string memory symbol, uint8 decimals, uint256 initialSupply, address initialHolder,\n        uint256 stakeBasePeriod, uint256 stakeHoldPeriod, uint256 stakeAnnualPercent, uint256 stakeAnnualPeriod) public initializer {\n        Ownable.initialize(initialHolder);\n        ERC20Detailed.initialize(name, symbol, decimals);\n        // Mint the initial supply\n        _mint(initialHolder, initialSupply); // * 10 ** uint256(decimals)\n\n        // Initialize the minter roles, and renounce them\n        ERC20Mintable.initialize(initialHolder);\n\n\n//        uint256 constant _holdPeriod = 21 days;\n//        uint256 constant _annualPercent = 12; // 12%\n//        uint256 constant _basePeriod = 1 days;\n//        uint256 constant _annualPeriod = 100 * 365 days; // mul 100 to help percent calculation\n        ERC20Stakes.initialize(stakeBasePeriod, stakeHoldPeriod, stakeAnnualPercent, stakeAnnualPeriod);\n\n    }\n\n    /**\n    * @dev non payable default function\n    *\n    * prevents to receive eth by direct transfer to contract\n    */\n    function() external {}\n\n    /**\n    * @dev allow minter to burn tokens from any account\n    */\n    function burn(address account, uint256 amount) public onlyMinter returns (bool) {\n        _burn(account, amount);\n        return true;\n    }\n\n    uint256[50] private ______gap;\n}\n",
  "sourcePath": "contracts/Token.sol",
  "abi": [
    {
      "anonymous": false,
      "inputs": [
        {
          "indexed": true,
          "internalType": "address",
          "name": "owner",
          "type": "address"
        },
        {
          "indexed": true,
          "internalType": "address",
          "name": "spender",
          "type": "address"
        },
        {
          "indexed": false,
          "internalType": "uint256",
          "name": "value",
          "type": "uint256"
        }
      ],
      "name": "Approval",
      "type": "event"
    },
    {
      "anonymous": false,
      "inputs": [
        {
          "indexed": true,
          "internalType": "address",
          "name": "account",
          "type": "address"
        }
      ],
      "name": "MinterAdded",
      "type": "event"
    },
    {
      "anonymous": false,
      "inputs": [
        {
          "indexed": true,
          "internalType": "address",
          "name": "account",
          "type": "address"
        }
      ],
      "name": "MinterRemoved",
      "type": "event"
    },
    {
      "anonymous": false,
      "inputs": [
        {
          "indexed": true,
          "internalType": "address",
          "name": "previousOwner",
          "type": "address"
        },
        {
          "indexed": true,
          "internalType": "address",
          "name": "newOwner",
          "type": "address"
        }
      ],
      "name": "OwnershipTransferred",
      "type": "event"
    },
    {
      "anonymous": false,
      "inputs": [
        {
          "indexed": true,
          "internalType": "address",
          "name": "stakeholder",
          "type": "address"
        },
        {
          "indexed": false,
          "internalType": "uint256",
          "name": "stake",
          "type": "uint256"
        }
      ],
      "name": "StakeCreate",
      "type": "event"
    },
    {
      "anonymous": false,
      "inputs": [
        {
          "indexed": true,
          "internalType": "address",
          "name": "stakeholder",
          "type": "address"
        }
      ],
      "name": "StakeHold",
      "type": "event"
    },
    {
      "anonymous": false,
      "inputs": [
        {
          "indexed": true,
          "internalType": "address",
          "name": "stakeholder",
          "type": "address"
        },
        {
          "indexed": false,
          "internalType": "uint256",
          "name": "reward",
          "type": "uint256"
        }
      ],
      "name": "StakeWithdraw",
      "type": "event"
    },
    {
      "anonymous": false,
      "inputs": [
        {
          "indexed": true,
          "internalType": "address",
          "name": "from",
          "type": "address"
        },
        {
          "indexed": true,
          "internalType": "address",
          "name": "to",
          "type": "address"
        },
        {
          "indexed": false,
          "internalType": "uint256",
          "name": "value",
          "type": "uint256"
        }
      ],
      "name": "Transfer",
      "type": "event"
    },
    {
      "payable": false,
      "stateMutability": "nonpayable",
      "type": "fallback"
    },
    {
      "constant": false,
      "inputs": [
        {
          "internalType": "address",
          "name": "account",
          "type": "address"
        }
      ],
      "name": "addMinter",
      "outputs": [],
      "payable": false,
      "stateMutability": "nonpayable",
      "type": "function"
    },
    {
      "constant": false,
      "inputs": [
        {
          "internalType": "uint256",
          "name": "amount",
          "type": "uint256"
        },
        {
          "internalType": "address[]",
          "name": "recipients",
          "type": "address[]"
        }
      ],
      "name": "airdrop",
      "outputs": [],
      "payable": false,
      "stateMutability": "nonpayable",
      "type": "function"
    },
    {
      "constant": true,
      "inputs": [
        {
          "internalType": "address",
          "name": "owner",
          "type": "address"
        },
        {
          "internalType": "address",
          "name": "spender",
          "type": "address"
        }
      ],
      "name": "allowance",
      "outputs": [
        {
          "internalType": "uint256",
          "name": "",
          "type": "uint256"
        }
      ],
      "payable": false,
      "stateMutability": "view",
      "type": "function"
    },
    {
      "constant": true,
      "inputs": [],
      "name": "annualPercent",
      "outputs": [
        {
          "internalType": "uint256",
          "name": "",
          "type": "uint256"
        }
      ],
      "payable": false,
      "stateMutability": "view",
      "type": "function"
    },
    {
      "constant": true,
      "inputs": [],
      "name": "annualPeriod",
      "outputs": [
        {
          "internalType": "uint256",
          "name": "",
          "type": "uint256"
        }
      ],
      "payable": false,
      "stateMutability": "view",
      "type": "function"
    },
    {
      "constant": false,
      "inputs": [
        {
          "internalType": "address",
          "name": "spender",
          "type": "address"
        },
        {
          "internalType": "uint256",
          "name": "amount",
          "type": "uint256"
        }
      ],
      "name": "approve",
      "outputs": [
        {
          "internalType": "bool",
          "name": "",
          "type": "bool"
        }
      ],
      "payable": false,
      "stateMutability": "nonpayable",
      "type": "function"
    },
    {
      "constant": true,
      "inputs": [
        {
          "internalType": "address",
          "name": "account",
          "type": "address"
        }
      ],
      "name": "balanceOf",
      "outputs": [
        {
          "internalType": "uint256",
          "name": "",
          "type": "uint256"
        }
      ],
      "payable": false,
      "stateMutability": "view",
      "type": "function"
    },
    {
      "constant": true,
      "inputs": [],
      "name": "basePeriod",
      "outputs": [
        {
          "internalType": "uint256",
          "name": "",
          "type": "uint256"
        }
      ],
      "payable": false,
      "stateMutability": "view",
      "type": "function"
    },
    {
      "constant": false,
      "inputs": [
        {
          "internalType": "address",
          "name": "account",
          "type": "address"
        },
        {
          "internalType": "uint256",
          "name": "amount",
          "type": "uint256"
        }
      ],
      "name": "burn",
      "outputs": [
        {
          "internalType": "bool",
          "name": "",
          "type": "bool"
        }
      ],
      "payable": false,
      "stateMutability": "nonpayable",
      "type": "function"
    },
    {
      "constant": false,
      "inputs": [],
      "name": "cancelStake",
      "outputs": [],
      "payable": false,
      "stateMutability": "nonpayable",
      "type": "function"
    },
    {
      "constant": false,
      "inputs": [
        {
          "internalType": "uint256",
          "name": "stake",
          "type": "uint256"
        }
      ],
      "name": "createStake",
      "outputs": [],
      "payable": false,
      "stateMutability": "nonpayable",
      "type": "function"
    },
    {
      "constant": true,
      "inputs": [],
      "name": "decimals",
      "outputs": [
        {
          "internalType": "uint8",
          "name": "",
          "type": "uint8"
        }
      ],
      "payable": false,
      "stateMutability": "view",
      "type": "function"
    },
    {
      "constant": false,
      "inputs": [
        {
          "internalType": "address",
          "name": "spender",
          "type": "address"
        },
        {
          "internalType": "uint256",
          "name": "subtractedValue",
          "type": "uint256"
        }
      ],
      "name": "decreaseAllowance",
      "outputs": [
        {
          "internalType": "bool",
          "name": "",
          "type": "bool"
        }
      ],
      "payable": false,
      "stateMutability": "nonpayable",
      "type": "function"
    },
    {
      "constant": true,
      "inputs": [],
      "name": "holdPeriod",
      "outputs": [
        {
          "internalType": "uint256",
          "name": "",
          "type": "uint256"
        }
      ],
      "payable": false,
      "stateMutability": "view",
      "type": "function"
    },
    {
      "constant": false,
      "inputs": [
        {
          "internalType": "address",
          "name": "spender",
          "type": "address"
        },
        {
          "internalType": "uint256",
          "name": "addedValue",
          "type": "uint256"
        }
      ],
      "name": "increaseAllowance",
      "outputs": [
        {
          "internalType": "bool",
          "name": "",
          "type": "bool"
        }
      ],
      "payable": false,
      "stateMutability": "nonpayable",
      "type": "function"
    },
    {
      "constant": false,
      "inputs": [
        {
          "internalType": "string",
          "name": "name",
          "type": "string"
        },
        {
          "internalType": "string",
          "name": "symbol",
          "type": "string"
        },
        {
          "internalType": "uint8",
          "name": "decimals",
          "type": "uint8"
        }
      ],
      "name": "initialize",
      "outputs": [],
      "payable": false,
      "stateMutability": "nonpayable",
      "type": "function"
    },
    {
      "constant": false,
      "inputs": [
        {
          "internalType": "uint256",
          "name": "basePeriod",
          "type": "uint256"
        },
        {
          "internalType": "uint256",
          "name": "holdPeriod",
          "type": "uint256"
        },
        {
          "internalType": "uint256",
          "name": "annualPercent",
          "type": "uint256"
        },
        {
          "internalType": "uint256",
          "name": "annualPeriod",
          "type": "uint256"
        }
      ],
      "name": "initialize",
      "outputs": [],
      "payable": false,
      "stateMutability": "nonpayable",
      "type": "function"
    },
    {
      "constant": false,
      "inputs": [
        {
          "internalType": "string",
          "name": "name",
          "type": "string"
        },
        {
          "internalType": "string",
          "name": "symbol",
          "type": "string"
        },
        {
          "internalType": "uint8",
          "name": "decimals",
          "type": "uint8"
        },
        {
          "internalType": "uint256",
          "name": "initialSupply",
          "type": "uint256"
        },
        {
          "internalType": "address",
          "name": "initialHolder",
          "type": "address"
        },
        {
          "internalType": "uint256",
          "name": "stakeBasePeriod",
          "type": "uint256"
        },
        {
          "internalType": "uint256",
          "name": "stakeHoldPeriod",
          "type": "uint256"
        },
        {
          "internalType": "uint256",
          "name": "stakeAnnualPercent",
          "type": "uint256"
        },
        {
          "internalType": "uint256",
          "name": "stakeAnnualPeriod",
          "type": "uint256"
        }
      ],
      "name": "initialize",
      "outputs": [],
      "payable": false,
      "stateMutability": "nonpayable",
      "type": "function"
    },
    {
      "constant": false,
      "inputs": [
        {
          "internalType": "address",
          "name": "sender",
          "type": "address"
        }
      ],
      "name": "initialize",
      "outputs": [],
      "payable": false,
      "stateMutability": "nonpayable",
      "type": "function"
    },
    {
      "constant": true,
      "inputs": [
        {
          "internalType": "address",
          "name": "account",
          "type": "address"
        }
      ],
      "name": "isMinter",
      "outputs": [
        {
          "internalType": "bool",
          "name": "",
          "type": "bool"
        }
      ],
      "payable": false,
      "stateMutability": "view",
      "type": "function"
    },
    {
      "constant": true,
      "inputs": [],
      "name": "isOwner",
      "outputs": [
        {
          "internalType": "bool",
          "name": "",
          "type": "bool"
        }
      ],
      "payable": false,
      "stateMutability": "view",
      "type": "function"
    },
    {
      "constant": true,
      "inputs": [
        {
          "internalType": "address",
          "name": "stakeholder",
          "type": "address"
        }
      ],
      "name": "isStakeholder",
      "outputs": [
        {
          "internalType": "bool",
          "name": "",
          "type": "bool"
        },
        {
          "internalType": "uint256",
          "name": "",
          "type": "uint256"
        }
      ],
      "payable": false,
      "stateMutability": "view",
      "type": "function"
    },
    {
      "constant": false,
      "inputs": [
        {
          "internalType": "address",
          "name": "account",
          "type": "address"
        },
        {
          "internalType": "uint256",
          "name": "amount",
          "type": "uint256"
        }
      ],
      "name": "mint",
      "outputs": [
        {
          "internalType": "bool",
          "name": "",
          "type": "bool"
        }
      ],
      "payable": false,
      "stateMutability": "nonpayable",
      "type": "function"
    },
    {
      "constant": true,
      "inputs": [],
      "name": "name",
      "outputs": [
        {
          "internalType": "string",
          "name": "",
          "type": "string"
        }
      ],
      "payable": false,
      "stateMutability": "view",
      "type": "function"
    },
    {
      "constant": true,
      "inputs": [],
      "name": "owner",
      "outputs": [
        {
          "internalType": "address",
          "name": "",
          "type": "address"
        }
      ],
      "payable": false,
      "stateMutability": "view",
      "type": "function"
    },
    {
      "constant": false,
      "inputs": [],
      "name": "renounceMinter",
      "outputs": [],
      "payable": false,
      "stateMutability": "nonpayable",
      "type": "function"
    },
    {
      "constant": false,
      "inputs": [],
      "name": "renounceOwnership",
      "outputs": [],
      "payable": false,
      "stateMutability": "nonpayable",
      "type": "function"
    },
    {
      "constant": true,
      "inputs": [
        {
          "internalType": "address",
          "name": "stakeholder",
          "type": "address"
        }
      ],
      "name": "rewardOf",
      "outputs": [
        {
          "internalType": "uint256",
          "name": "",
          "type": "uint256"
        }
      ],
      "payable": false,
      "stateMutability": "view",
      "type": "function"
    },
    {
      "constant": true,
      "inputs": [
        {
          "internalType": "address",
          "name": "stakeholder",
          "type": "address"
        }
      ],
      "name": "stakeDetails",
      "outputs": [
        {
          "internalType": "uint256",
          "name": "",
          "type": "uint256"
        },
        {
          "internalType": "uint256",
          "name": "",
          "type": "uint256"
        }
      ],
      "payable": false,
      "stateMutability": "view",
      "type": "function"
    },
    {
      "constant": true,
      "inputs": [
        {
          "internalType": "address",
          "name": "stakeholder",
          "type": "address"
        }
      ],
      "name": "stakeOf",
      "outputs": [
        {
          "internalType": "uint256",
          "name": "",
          "type": "uint256"
        }
      ],
      "payable": false,
      "stateMutability": "view",
      "type": "function"
    },
    {
      "constant": true,
      "inputs": [],
      "name": "symbol",
      "outputs": [
        {
          "internalType": "string",
          "name": "",
          "type": "string"
        }
      ],
      "payable": false,
      "stateMutability": "view",
      "type": "function"
    },
    {
      "constant": true,
      "inputs": [],
      "name": "totalStakes",
      "outputs": [
        {
          "internalType": "uint256",
          "name": "",
          "type": "uint256"
        }
      ],
      "payable": false,
      "stateMutability": "view",
      "type": "function"
    },
    {
      "constant": true,
      "inputs": [],
      "name": "totalSupply",
      "outputs": [
        {
          "internalType": "uint256",
          "name": "",
          "type": "uint256"
        }
      ],
      "payable": false,
      "stateMutability": "view",
      "type": "function"
    },
    {
      "constant": false,
      "inputs": [
        {
          "internalType": "address",
          "name": "recipient",
          "type": "address"
        },
        {
          "internalType": "uint256",
          "name": "amount",
          "type": "uint256"
        }
      ],
      "name": "transfer",
      "outputs": [
        {
          "internalType": "bool",
          "name": "",
          "type": "bool"
        }
      ],
      "payable": false,
      "stateMutability": "nonpayable",
      "type": "function"
    },
    {
      "constant": false,
      "inputs": [
        {
          "internalType": "address",
          "name": "sender",
          "type": "address"
        },
        {
          "internalType": "address",
          "name": "recipient",
          "type": "address"
        },
        {
          "internalType": "uint256",
          "name": "amount",
          "type": "uint256"
        }
      ],
      "name": "transferFrom",
      "outputs": [
        {
          "internalType": "bool",
          "name": "",
          "type": "bool"
        }
      ],
      "payable": false,
      "stateMutability": "nonpayable",
      "type": "function"
    },
    {
      "constant": false,
      "inputs": [
        {
          "internalType": "address",
          "name": "newOwner",
          "type": "address"
        }
      ],
      "name": "transferOwnership",
      "outputs": [],
      "payable": false,
      "stateMutability": "nonpayable",
      "type": "function"
    },
    {
      "constant": false,
      "inputs": [],
      "name": "withdrawStake",
      "outputs": [],
      "payable": false,
      "stateMutability": "nonpayable",
      "type": "function"
    }
  ],
  "bytecode": "0x60806040526127f2806100136000396000f3fe608060405234801561001057600080fd5b50600436106102275760003560e01c8063983b2d5611610130578063bf9befb1116100b8578063eadca0f41161007c578063eadca0f4146108f6578063ef037b90146108fe578063f2fde38b1461093f578063f5967a2f14610965578063fa2a9da91461096d57610227565b8063bf9befb11461088a578063c4d66de814610892578063ca9ce291146108b8578063dd62ed3e146108c0578063e1b8e813146108ee57610227565b8063a9059cbb116100ff578063a9059cbb146107b3578063a9bd4296146107df578063aa271e1a146107e7578063bdf7a8e61461080d578063bed9d8611461088257610227565b8063983b2d561461072d57806398650275146107535780639dc29fac1461075b578063a457c2d71461078757610227565b806340c10f19116101b357806370a082311161018257806370a08231146106cb578063715018a6146106f15780638da5cb5b146106f95780638f32d59b1461071d57806395d89b411461072557610227565b806340c10f19146104f1578063426233601461051d57806360a2da44146105435780636f34dc5b1461057257610227565b80631bf6ddae116101fa5780631bf6ddae1461042e5780631d62ebd91461044b57806323b872dd14610471578063313ce567146104a757806339509351146104c557610227565b806306fdde0314610229578063095ea7b3146102a65780631624f6c6146102e657806318160ddd14610414575b005b6102316109ac565b6040805160208082528351818301528351919283929083019185019080838360005b8381101561026b578181015183820152602001610253565b50505050905090810190601f1680156102985780820380516001836020036101000a031916815260200191505b509250505060405180910390f35b6102d2600480360360408110156102bc57600080fd5b506001600160a01b038135169060200135610a44565b604080519115158252519081900360200190f35b610227600480360360608110156102fc57600080fd5b810190602081018135600160201b81111561031657600080fd5b82018360208201111561032857600080fd5b803590602001918460018302840111600160201b8311171561034957600080fd5b91908080601f0160208091040260200160405190810160405280939291908181526020018383808284376000920191909152509295949360208101935035915050600160201b81111561039b57600080fd5b8201836020820111156103ad57600080fd5b803590602001918460018302840111600160201b831117156103ce57600080fd5b91908080601f0160208091040260200160405190810160405280939291908181526020018383808284376000920191909152509295505050903560ff169150610a629050565b61041c610b41565b60408051918252519081900360200190f35b6102276004803603602081101561044457600080fd5b5035610b47565b61041c6004803603602081101561046157600080fd5b50356001600160a01b0316610b5b565b6102d26004803603606081101561048757600080fd5b506001600160a01b03813581169160208101359091169060400135610bda565b6104af610c67565b6040805160ff9092168252519081900360200190f35b6102d2600480360360408110156104db57600080fd5b506001600160a01b038135169060200135610c71565b6102d26004803603604081101561050757600080fd5b506001600160a01b038135169060200135610cc5565b61041c6004803603602081101561053357600080fd5b50356001600160a01b0316610d1c565b6102276004803603608081101561055957600080fd5b5080359060208101359060408101359060600135610d37565b610227600480360361012081101561058957600080fd5b810190602081018135600160201b8111156105a357600080fd5b8201836020820111156105b557600080fd5b803590602001918460018302840111600160201b831117156105d657600080fd5b91908080601f0160208091040260200160405190810160405280939291908181526020018383808284376000920191909152509295949360208101935035915050600160201b81111561062857600080fd5b82018360208201111561063a57600080fd5b803590602001918460018302840111600160201b8311171561065b57600080fd5b91908080601f0160208091040260200160405190810160405280939291908181526020018383808284376000920191909152509295505060ff833516935050506020810135906001600160a01b036040820135169060608101359060808101359060a08101359060c00135610de9565b61041c600480360360208110156106e157600080fd5b50356001600160a01b0316610ec7565b610227610ee2565b610701610f85565b604080516001600160a01b039092168252519081900360200190f35b6102d2610f94565b610231610fba565b6102276004803603602081101561074357600080fd5b50356001600160a01b031661101c565b61022761106b565b6102d26004803603604081101561077157600080fd5b506001600160a01b03813516906020013561107d565b6102d26004803603604081101561079d57600080fd5b506001600160a01b0381351690602001356110cf565b6102d2600480360360408110156107c957600080fd5b506001600160a01b03813516906020013561113d565b61041c611151565b6102d2600480360360208110156107fd57600080fd5b50356001600160a01b0316611157565b6102276004803603604081101561082357600080fd5b81359190810190604081016020820135600160201b81111561084457600080fd5b82018360208201111561085657600080fd5b803590602001918460208302840111600160201b8311171561087757600080fd5b50909250905061116b565b6102276112ba565b61041c6112ca565b610227600480360360208110156108a857600080fd5b50356001600160a01b031661132f565b6102276113db565b61041c600480360360408110156108d657600080fd5b506001600160a01b03813581169160200135166113eb565b61041c611416565b61041c61142a565b6109246004803603602081101561091457600080fd5b50356001600160a01b0316611430565b60408051921515835260208301919091528051918290030190f35b6102276004803603602081101561095557600080fd5b50356001600160a01b031661148c565b61041c6114ee565b6109936004803603602081101561098357600080fd5b50356001600160a01b03166114f4565b6040805192835260208301919091528051918290030190f35b6101058054604080516020601f6002600019610100600188161502019095169490940493840181900481028201810190925282815260609390929091830182828015610a395780601f10610a0e57610100808354040283529160200191610a39565b820191906000526020600020905b815481529060010190602001808311610a1c57829003601f168201915b505050505090505b90565b6000610a58610a5161151a565b848461151e565b5060015b92915050565b600054610100900460ff1680610a7b5750610a7b61160a565b80610a89575060005460ff16155b610ac45760405162461bcd60e51b815260040180806020018281038252602e815260200180612701602e913960400191505060405180910390fd5b600054610100900460ff16158015610aef576000805460ff1961ff0019909116610100171660011790555b8351610b03906101059060208701906124d2565b508251610b18906101069060208601906124d2565b50610107805460ff191660ff84161790558015610b3b576000805461ff00191690555b50505050565b60685490565b610b58610b5261151a565b82611610565b50565b6001600160a01b038116600090815260d26020526040812060010154610b8357506000610bd5565b6001600160a01b038216600090815260d26020526040902060020154610bd290839015610bcb576001600160a01b038416600090815260d26020526040902060020154610bcd565b425b61170f565b90505b919050565b6000610be7848484611796565b610c5d84610bf361151a565b610c58856040518060600160405280602881526020016126b7602891396001600160a01b038a16600090815260676020526040812090610c3161151a565b6001600160a01b03168152602081019190915260400160002054919063ffffffff6118f416565b61151e565b5060019392505050565b6101075460ff1690565b6000610a58610c7e61151a565b84610c588560676000610c8f61151a565b6001600160a01b03908116825260208083019390935260409182016000908120918c16815292529020549063ffffffff61198b16565b6000610cd7610cd261151a565b611157565b610d125760405162461bcd60e51b81526004018080602001828103825260308152602001806126456030913960400191505060405180910390fd5b610a5883836119ec565b6001600160a01b0316600090815260d2602052604090205490565b600054610100900460ff1680610d505750610d5061160a565b80610d5e575060005460ff16155b610d995760405162461bcd60e51b815260040180806020018281038252602e815260200180612701602e913960400191505060405180910390fd5b600054610100900460ff16158015610dc4576000805460ff1961ff0019909116610100171660011790555b610dd085858585611ade565b8015610de2576000805461ff00191690555b5050505050565b600054610100900460ff1680610e025750610e0261160a565b80610e10575060005460ff16155b610e4b5760405162461bcd60e51b815260040180806020018281038252602e815260200180612701602e913960400191505060405180910390fd5b600054610100900460ff16158015610e76576000805460ff1961ff0019909116610100171660011790555b610e7f86611b07565b610e8a8a8a8a610a62565b610e9486886119ec565b610e9d8661132f565b610ea985858585610d37565b8015610ebb576000805461ff00191690555b50505050505050505050565b6001600160a01b031660009081526066602052604090205490565b610eea610f94565b610f3b576040805162461bcd60e51b815260206004820181905260248201527f4f776e61626c653a2063616c6c6572206973206e6f7420746865206f776e6572604482015290519081900360640190fd5b6033546040516000916001600160a01b0316907f8be0079c531659141344cd1fd0a4f28419497f9722a3daafe3b4186f6b6457e0908390a3603380546001600160a01b0319169055565b6033546001600160a01b031690565b6033546000906001600160a01b0316610fab61151a565b6001600160a01b031614905090565b6101068054604080516020601f6002600019610100600188161502019095169490940493840181900481028201810190925282815260609390929091830182828015610a395780601f10610a0e57610100808354040283529160200191610a39565b611027610cd261151a565b6110625760405162461bcd60e51b81526004018080602001828103825260308152602001806126456030913960400191505060405180910390fd5b610b5881611bf8565b61107b61107661151a565b611c41565b565b600061108a610cd261151a565b6110c55760405162461bcd60e51b81526004018080602001828103825260308152602001806126456030913960400191505060405180910390fd5b610a588383611c8a565b6000610a586110dc61151a565b84610c5885604051806060016040528060258152602001612799602591396067600061110661151a565b6001600160a01b03908116825260208083019390935260409182016000908120918d1681529252902054919063ffffffff6118f416565b6000610a5861114a61151a565b8484611796565b60ce5490565b6000610bd261013a8363ffffffff611d8616565b600083116111b7576040805162461bcd60e51b8152602060048201526014602482015273105a5c991c9bdc0e881e995c9bc8185b5bdd5b9d60621b604482015290519081900360640190fd5b80611209576040805162461bcd60e51b815260206004820152601c60248201527f41697264726f703a20726563697069656e747320726571756972656400000000604482015290519081900360640190fd5b600061121361151a565b9050611225848363ffffffff611ded16565b61122e82610ec7565b1015611281576040805162461bcd60e51b815260206004820152601b60248201527f41697264726f703a206e6f7420656e6f7567682062616c616e63650000000000604482015290519081900360640190fd5b60005b82811015610de2576112b28285858481811061129c57fe5b905060200201356001600160a01b031687611796565b600101611284565b61107b6112c561151a565b611e46565b600080805b60d1548110156113295761131f60d2600060d184815481106112ed57fe5b60009182526020808320909101546001600160a01b03168352820192909252604001902054839063ffffffff61198b16565b91506001016112cf565b50905090565b600054610100900460ff1680611348575061134861160a565b80611356575060005460ff16155b6113915760405162461bcd60e51b815260040180806020018281038252602e815260200180612701602e913960400191505060405180910390fd5b600054610100900460ff161580156113bc576000805460ff1961ff0019909116610100171660011790555b6113c582611fd1565b80156113d7576000805461ff00191690555b5050565b61107b6113e661151a565b612074565b6001600160a01b03918216600090815260676020908152604080832093909416825291909152205490565b6000606460d0548161142457fe5b04905090565b60cf5490565b600080805b60d15481101561147e5760d1818154811061144c57fe5b6000918252602090912001546001600160a01b038581169116141561147657600192509050611487565b600101611435565b50600091508190505b915091565b611494610f94565b6114e5576040805162461bcd60e51b815260206004820181905260248201527f4f776e61626c653a2063616c6c6572206973206e6f7420746865206f776e6572604482015290519081900360640190fd5b610b58816121f4565b60cd5490565b6001600160a01b0316600090815260d26020526040902060018101546002909101549091565b3390565b6001600160a01b0383166115635760405162461bcd60e51b81526004018080602001828103825260248152602001806127756024913960400191505060405180910390fd5b6001600160a01b0382166115a85760405162461bcd60e51b81526004018080602001828103825260228152602001806125fd6022913960400191505060405180910390fd5b6001600160a01b03808416600081815260676020908152604080832094871680845294825291829020859055815185815291517f8c5be1e5ebec7d5bd14f71427d1e84f3dd0314c0f7b2291e5b200ac8c7c3b9259281900390910190a3505050565b303b1590565b6001600160a01b038216600090815260d26020526040902054829015611673576040805162461bcd60e51b81526020600482015260136024820152725374616b653a207374616b652065786973747360681b604482015290519081900360640190fd5b61167d8383611c8a565b6040805160608101825283815242602080830191825260008385018181526001600160a01b038916825260d2909252939093209151825551600182015590516002909101556116cb83612295565b6040805183815290516001600160a01b038516917f8915595eb58a6a6bf41eb9635929fc76b8e27c299f418d35d2727b8142cd5e90919081900360200190a2505050565b60cf546001600160a01b038316600090815260d2602052604081206001015490918291819085038161173d57fe5b60d05460ce546001600160a01b038916600090815260d26020526040902054939092049390930293506117869161177a908563ffffffff611ded16565b9063ffffffff611ded16565b8161178d57fe5b04949350505050565b6001600160a01b0383166117db5760405162461bcd60e51b81526004018080602001828103825260258152602001806127506025913960400191505060405180910390fd5b6001600160a01b0382166118205760405162461bcd60e51b815260040180806020018281038252602381526020018061256b6023913960400191505060405180910390fd5b6118638160405180606001604052806026815260200161261f602691396001600160a01b038616600090815260666020526040902054919063ffffffff6118f416565b6001600160a01b038085166000908152606660205260408082209390935590841681522054611898908263ffffffff61198b16565b6001600160a01b0380841660008181526066602090815260409182902094909455805185815290519193928716927fddf252ad1be2c89b69c2b068fc378daa952ba7f163c4a11628f55a4df523b3ef92918290030190a3505050565b600081848411156119835760405162461bcd60e51b81526004018080602001828103825283818151815260200191508051906020019080838360005b83811015611948578181015183820152602001611930565b50505050905090810190601f1680156119755780820380516001836020036101000a031916815260200191505b509250505060405180910390fd5b505050900390565b6000828201838110156119e5576040805162461bcd60e51b815260206004820152601b60248201527f536166654d6174683a206164646974696f6e206f766572666c6f770000000000604482015290519081900360640190fd5b9392505050565b6001600160a01b038216611a47576040805162461bcd60e51b815260206004820152601f60248201527f45524332303a206d696e7420746f20746865207a65726f206164647265737300604482015290519081900360640190fd5b606854611a5a908263ffffffff61198b16565b6068556001600160a01b038216600090815260666020526040902054611a86908263ffffffff61198b16565b6001600160a01b03831660008181526066602090815260408083209490945583518581529351929391927fddf252ad1be2c89b69c2b068fc378daa952ba7f163c4a11628f55a4df523b3ef9281900390910190a35050565b60cd83905560ce82905560cf849055611afe81606463ffffffff611ded16565b60d05550505050565b600054610100900460ff1680611b205750611b2061160a565b80611b2e575060005460ff16155b611b695760405162461bcd60e51b815260040180806020018281038252602e815260200180612701602e913960400191505060405180910390fd5b600054610100900460ff16158015611b94576000805460ff1961ff0019909116610100171660011790555b603380546001600160a01b0319166001600160a01b0384811691909117918290556040519116906000907f8be0079c531659141344cd1fd0a4f28419497f9722a3daafe3b4186f6b6457e0908290a380156113d7576000805461ff00191690555050565b611c0a61013a8263ffffffff6122f916565b6040516001600160a01b038216907f6ae172837ea30b801fbfcdd4108aa1d5bf8ff775444fd70256b44e6bf3dfc3f690600090a250565b611c5361013a8263ffffffff61237a16565b6040516001600160a01b038216907fe94479a9f7e1952cc78f2d6baab678adc1b772d936c6583def489e524cb6669290600090a250565b6001600160a01b038216611ccf5760405162461bcd60e51b815260040180806020018281038252602181526020018061272f6021913960400191505060405180910390fd5b611d128160405180606001604052806022815260200161258e602291396001600160a01b038516600090815260666020526040902054919063ffffffff6118f416565b6001600160a01b038316600090815260666020526040902055606854611d3e908263ffffffff6123e116565b6068556040805182815290516000916001600160a01b038516917fddf252ad1be2c89b69c2b068fc378daa952ba7f163c4a11628f55a4df523b3ef9181900360200190a35050565b60006001600160a01b038216611dcd5760405162461bcd60e51b81526004018080602001828103825260228152602001806126df6022913960400191505060405180910390fd5b506001600160a01b03166000908152602091909152604090205460ff1690565b600082611dfc57506000610a5c565b82820282848281611e0957fe5b04146119e55760405162461bcd60e51b81526004018080602001828103825260218152602001806126966021913960400191505060405180910390fd5b6001600160a01b038116600090815260d2602052604090206001810154600290910154829110611ea75760405162461bcd60e51b81526004018080602001828103825260278152602001806125b06027913960400191505060405180910390fd5b60cd546001600160a01b038216600090815260d260205260409020600201544291011115611f13576040805162461bcd60e51b815260206004820152601460248201527314dd185ad94e881cdd185ad9481bdb881a1bdb1960621b604482015290519081900360640190fd5b6001600160a01b038216600090815260d26020526040812060020154611f3a90849061170f565b6001600160a01b038416600090815260d260205260408120805482825560018201839055600290910191909155909150611f7384612423565b611f8c84611f87838563ffffffff61198b16565b6119ec565b6040805183815290516001600160a01b038616917f1248d48e2de900a1010c7fce73506969ecec243600bfc08b641b158f26d857cd919081900360200190a250505050565b600054610100900460ff1680611fea5750611fea61160a565b80611ff8575060005460ff16155b6120335760405162461bcd60e51b815260040180806020018281038252602e815260200180612701602e913960400191505060405180910390fd5b600054610100900460ff1615801561205e576000805460ff1961ff0019909116610100171660011790555b61206782611157565b6113c5576113c582611bf8565b6001600160a01b038116600090815260d2602052604090205481906120d6576040805162461bcd60e51b815260206004820152601360248201527214dd185ad94e881b9bc81cdd185ad9481e595d606a1b604482015290519081900360640190fd5b6001600160a01b038116600090815260d260205260409020600201541561213c576040805162461bcd60e51b815260206004820152601560248201527414dd185ad94e881cdd185ad94818d85b98d95b1959605a1b604482015290519081900360640190fd5b6001600160a01b038116600090815260d2602052604090206001015442116121ab576040805162461bcd60e51b815260206004820152601960248201527f5374616b653a207374616b65206a757374206372656174656400000000000000604482015290519081900360640190fd5b6001600160a01b038216600081815260d2602052604080822042600290910155517f42549297d4130b561bf55291c0aaedc0050cd4bc739be20b58090af3d85f4fd99190a25050565b6001600160a01b0381166122395760405162461bcd60e51b81526004018080602001828103825260268152602001806125d76026913960400191505060405180910390fd5b6033546040516001600160a01b038084169216907f8be0079c531659141344cd1fd0a4f28419497f9722a3daafe3b4186f6b6457e090600090a3603380546001600160a01b0319166001600160a01b0392909216919091179055565b60006122a082611430565b509050806113d75760d180546001810182556000919091527f695fb3134ad82c3b8022bc5464edd0bcc9424ef672b52245dcb6ab2374327ce30180546001600160a01b0384166001600160a01b03199091161790555050565b6123038282611d86565b15612355576040805162461bcd60e51b815260206004820152601f60248201527f526f6c65733a206163636f756e7420616c72656164792068617320726f6c6500604482015290519081900360640190fd5b6001600160a01b0316600090815260209190915260409020805460ff19166001179055565b6123848282611d86565b6123bf5760405162461bcd60e51b81526004018080602001828103825260218152602001806126756021913960400191505060405180910390fd5b6001600160a01b0316600090815260209190915260409020805460ff19169055565b60006119e583836040518060400160405280601e81526020017f536166654d6174683a207375627472616374696f6e206f766572666c6f7700008152506118f4565b60008061242f83611430565b9150915081156124cd5760d18054600019810190811061244b57fe5b60009182526020909120015460d180546001600160a01b03909216918390811061247157fe5b9060005260206000200160006101000a8154816001600160a01b0302191690836001600160a01b0316021790555060d18054806124aa57fe5b600082815260209020810160001990810180546001600160a01b03191690550190555b505050565b828054600181600116156101000203166002900490600052602060002090601f016020900481019282601f1061251357805160ff1916838001178555612540565b82800160010185558215612540579182015b82811115612540578251825591602001919060010190612525565b5061254c929150612550565b5090565b610a4191905b8082111561254c576000815560010161255656fe45524332303a207472616e7366657220746f20746865207a65726f206164647265737345524332303a206275726e20616d6f756e7420657863656564732062616c616e63655374616b653a207374616b65206e6f7420657869737473206f72206e6f742063616e63656c65644f776e61626c653a206e6577206f776e657220697320746865207a65726f206164647265737345524332303a20617070726f766520746f20746865207a65726f206164647265737345524332303a207472616e7366657220616d6f756e7420657863656564732062616c616e63654d696e746572526f6c653a2063616c6c657220646f6573206e6f74206861766520746865204d696e74657220726f6c65526f6c65733a206163636f756e7420646f6573206e6f74206861766520726f6c65536166654d6174683a206d756c7469706c69636174696f6e206f766572666c6f7745524332303a207472616e7366657220616d6f756e74206578636565647320616c6c6f77616e6365526f6c65733a206163636f756e7420697320746865207a65726f2061646472657373436f6e747261637420696e7374616e63652068617320616c7265616479206265656e20696e697469616c697a656445524332303a206275726e2066726f6d20746865207a65726f206164647265737345524332303a207472616e736665722066726f6d20746865207a65726f206164647265737345524332303a20617070726f76652066726f6d20746865207a65726f206164647265737345524332303a2064656372656173656420616c6c6f77616e63652062656c6f77207a65726fa265627a7a72315820088b9bb46a7db6db303f7fea10a5e4c274839081f8ee722a537c13cf11199da164736f6c63430005110032",
  "compiler": {
    "name": "solc",
    "version": "0.5.17+commit.d19bba13.Emscripten.clang",
    "optimizer": {
      "enabled": true,
      "runs": 200
    },
    "evmVersion": "petersburg"
  }
}